{
  "contractName": "MovieRating",
  "abi": [
    {
      "inputs": [],
      "payable": false,
      "stateMutability": "nonpayable",
      "type": "constructor"
    },
    {
      "anonymous": false,
      "inputs": [
        {
          "indexed": false,
          "internalType": "uint256",
          "name": "_movieId",
          "type": "uint256"
        },
        {
          "indexed": false,
          "internalType": "string",
          "name": "_movieName",
          "type": "string"
        }
      ],
      "name": "MovieAdded",
      "type": "event"
    },
    {
      "anonymous": false,
      "inputs": [
        {
          "indexed": false,
          "internalType": "uint256",
          "name": "_movieId",
          "type": "uint256"
        },
        {
          "indexed": false,
          "internalType": "uint256",
          "name": "_accomulatedRating",
          "type": "uint256"
        },
        {
          "indexed": false,
          "internalType": "uint256",
          "name": "_rateCount",
          "type": "uint256"
        }
      ],
      "name": "MovieInfo",
      "type": "event"
    },
    {
      "anonymous": false,
      "inputs": [
        {
          "indexed": false,
          "internalType": "address",
          "name": "_rater",
          "type": "address"
        },
        {
          "indexed": false,
          "internalType": "uint256",
          "name": "_rating",
          "type": "uint256"
        }
      ],
      "name": "MovieRated",
      "type": "event"
    },
    {
      "constant": true,
      "inputs": [
        {
          "internalType": "uint256",
          "name": "",
          "type": "uint256"
        }
      ],
      "name": "averageMovieRatings",
      "outputs": [
        {
          "internalType": "uint256",
          "name": "",
          "type": "uint256"
        }
      ],
      "payable": false,
      "stateMutability": "view",
      "type": "function"
    },
    {
      "constant": true,
      "inputs": [
        {
          "internalType": "uint256",
          "name": "",
          "type": "uint256"
        }
      ],
      "name": "movieIds",
      "outputs": [
        {
          "internalType": "uint256",
          "name": "",
          "type": "uint256"
        }
      ],
      "payable": false,
      "stateMutability": "view",
      "type": "function"
    },
    {
      "constant": false,
      "inputs": [
        {
          "internalType": "uint256",
          "name": "_movieId",
          "type": "uint256"
        },
        {
          "internalType": "string",
          "name": "_movieName",
          "type": "string"
        }
      ],
      "name": "addMovie",
      "outputs": [
        {
          "internalType": "uint256",
          "name": "",
          "type": "uint256"
        }
      ],
      "payable": false,
      "stateMutability": "nonpayable",
      "type": "function"
    },
    {
      "constant": false,
      "inputs": [
        {
          "internalType": "uint256",
          "name": "_movieId",
          "type": "uint256"
        },
        {
          "internalType": "uint256",
          "name": "_rating",
          "type": "uint256"
        }
      ],
      "name": "rateMovie",
      "outputs": [],
      "payable": false,
      "stateMutability": "nonpayable",
      "type": "function"
    },
    {
      "constant": true,
      "inputs": [
        {
          "internalType": "uint256",
          "name": "_movieId",
          "type": "uint256"
        }
      ],
      "name": "getAverageMovieRating",
      "outputs": [
        {
          "internalType": "uint256",
          "name": "",
          "type": "uint256"
        }
      ],
      "payable": false,
      "stateMutability": "view",
      "type": "function"
    },
    {
      "constant": true,
      "inputs": [
        {
          "internalType": "uint256",
          "name": "_movieId",
          "type": "uint256"
        }
      ],
      "name": "getMyRating",
      "outputs": [
        {
          "internalType": "uint256",
          "name": "",
          "type": "uint256"
        }
      ],
      "payable": false,
      "stateMutability": "view",
      "type": "function"
    },
    {
      "constant": true,
      "inputs": [],
      "name": "getTotalMovies",
      "outputs": [
        {
          "internalType": "uint256",
          "name": "",
          "type": "uint256"
        }
      ],
      "payable": false,
      "stateMutability": "view",
      "type": "function"
    },
    {
      "constant": true,
      "inputs": [],
      "name": "getMovieIds",
      "outputs": [
        {
          "internalType": "uint256[]",
          "name": "",
          "type": "uint256[]"
        }
      ],
      "payable": false,
      "stateMutability": "view",
      "type": "function"
    },
    {
      "constant": true,
      "inputs": [],
      "name": "getAverageMovieRatings",
      "outputs": [
        {
          "internalType": "uint256[15]",
          "name": "",
          "type": "uint256[15]"
        }
      ],
      "payable": false,
      "stateMutability": "view",
      "type": "function"
    }
  ],
  "bytecode": "0x60806040523480156200001157600080fd5b50336000806101000a81548173ffffffffffffffffffffffffffffffffffffffff021916908373ffffffffffffffffffffffffffffffffffffffff1602179055506000600190505b600f8111620000ca57620000bb818260405160200180807f4d6f766965200000000000000000000000000000000000000000000000000000815250600601828152602001915050604051602081830303815290604052620000d160201b60201c565b50808060010191505062000059565b5062000467565b60003373ffffffffffffffffffffffffffffffffffffffff166000809054906101000a900473ffffffffffffffffffffffffffffffffffffffff1673ffffffffffffffffffffffffffffffffffffffff161462000196576040517f08c379a000000000000000000000000000000000000000000000000000000000815260040180806020018281038252601c8152602001807f4f6e6c79206f776e65722063616e2061646420746865206d6f7669650000000081525060200191505060405180910390fd5b826000620001aa826200033960201b60201c565b905060001515811515146200020b576040517f08c379a0000000000000000000000000000000000000000000000000000000008152600401808060200182810382526023815260200180620010a16023913960400191505060405180910390fd5b620002156200039e565b60405180604001604052808781526020018681525090506001819080600181540180825580915050906001820390600052602060002090600202016000909192909190915060008201518160000155602082015181600101908051906020019062000282929190620003b8565b505050507fdf42019df16172a4cf62587bc192fc5a8776766d2663cb4d32ced057e8f4a28086866040518083815260200180602001828103825283818151815260200191508051906020019080838360005b83811015620002f1578082015181840152602081019050620002d4565b50505050905090810190601f1680156200031f5780820380516001836020036101000a031916815260200191505b50935050505060405180910390a185935050505092915050565b6000806000905060008090505b600180549050811015620003945783600182815481106200036357fe5b906000526020600020906002020160000154141562000386576001915062000394565b808060010191505062000346565b5080915050919050565b604051806040016040528060008152602001606081525090565b828054600181600116156101000203166002900490600052602060002090601f016020900481019282601f10620003fb57805160ff19168380011785556200042c565b828001600101855582156200042c579182015b828111156200042b5782518255916020019190600101906200040e565b5b5090506200043b91906200043f565b5090565b6200046491905b808211156200046057600081600090555060010162000446565b5090565b90565b610c2a80620004776000396000f3fe608060405234801561001057600080fd5b50600436106100935760003560e01c8063d47e941f11610066578063d47e941f146101b3578063e09ac6ac146101f5578063f206ae1b14610237578063f4ef422014610310578063feb8a9161461035657610093565b806324bce15b146100985780635c218fea146100da578063861abe561461011c578063b429485214610154575b600080fd5b6100c4600480360360208110156100ae57600080fd5b8101908080359060200190929190505050610374565b6040518082815260200191505060405180910390f35b610106600480360360208110156100f057600080fd5b81019080803590602001909291905050506103f0565b6040518082815260200191505060405180910390f35b6101526004803603604081101561013257600080fd5b810190808035906020019092919080359060200190929190505050610408565b005b61015c61070a565b6040518080602001828103825283818151815260200191508051906020019060200280838360005b8381101561019f578082015181840152602081019050610184565b505050509050019250505060405180910390f35b6101df600480360360208110156101c957600080fd5b8101908080359060200190929190505050610762565b6040518082815260200191505060405180910390f35b6102216004803603602081101561020b57600080fd5b8101908080359060200190929190505050610783565b6040518082815260200191505060405180910390f35b6102fa6004803603604081101561024d57600080fd5b81019080803590602001909291908035906020019064010000000081111561027457600080fd5b82018360208201111561028657600080fd5b803590602001918460018302840111640100000000831117156102a857600080fd5b91908080601f016020809104026020016040519081016040528093929190818152602001838380828437600081840152601f19601f8201169050808301925050505050505091929192905050506107dd565b6040518082815260200191505060405180910390f35b610318610a33565b6040518082600f60200280838360005b83811015610343578082015181840152602081019050610328565b5050505090500191505060405180910390f35b61035e610a7e565b6040518082815260200191505060405180910390f35b60008061038083610a90565b90506000151581151514806103a8575060006013600085815260200190815260200160002054145b156103b75760009150506103eb565b60136000848152602001908152602001600020546014600085815260200190815260200160002054816103e657fe5b049150505b919050565b600381600f81106103fd57fe5b016000915090505481565b81600061041482610a90565b90506001151581151514610490576040517f08c379a000000000000000000000000000000000000000000000000000000000815260040180806020018281038252601e8152602001807f54686520656e7465726564206d6f766965204944206e6f7420666f756e64000081525060200191505060405180910390fd5b826000811180156104a2575060058111155b610514576040517f08c379a000000000000000000000000000000000000000000000000000000000815260040180806020018281038252601f8152602001807f54686520726174696e672073686f756c642062652077697468696e20312d350081525060200191505060405180910390fd5b60006012600087815260200190815260200160002060003373ffffffffffffffffffffffffffffffffffffffff1673ffffffffffffffffffffffffffffffffffffffff168152602001908152602001600020549050846012600088815260200190815260200160002060003373ffffffffffffffffffffffffffffffffffffffff1673ffffffffffffffffffffffffffffffffffffffff16815260200190815260200160002081905550600081141561060f5760016013600088815260200190815260200160002060008282540192505081905550846014600088815260200190815260200160002060008282540192505081905550610652565b8060146000888152602001908152602001600020600082825403925050819055508460146000888152602001908152602001600020600082825401925050819055505b601360008781526020019081526020016000205460146000888152602001908152602001600020548161068157fe5b04600360018803600f811061069257fe5b01819055507fc7de3682c938b7b4709db26dba4141f4c7609cd6bfb24f2329cb0dbe8c42689d3386604051808373ffffffffffffffffffffffffffffffffffffffff1673ffffffffffffffffffffffffffffffffffffffff1681526020018281526020019250505060405180910390a1505050505050565b6060600280548060200260200160405190810160405280929190818152602001828054801561075857602002820191906000526020600020905b815481526020019060010190808311610744575b5050505050905090565b6002818154811061076f57fe5b906000526020600020016000915090505481565b60006012600083815260200190815260200160002060003373ffffffffffffffffffffffffffffffffffffffff1673ffffffffffffffffffffffffffffffffffffffff168152602001908152602001600020549050919050565b60003373ffffffffffffffffffffffffffffffffffffffff166000809054906101000a900473ffffffffffffffffffffffffffffffffffffffff1673ffffffffffffffffffffffffffffffffffffffff16146108a1576040517f08c379a000000000000000000000000000000000000000000000000000000000815260040180806020018281038252601c8152602001807f4f6e6c79206f776e65722063616e2061646420746865206d6f7669650000000081525060200191505060405180910390fd5b8260006108ad82610a90565b9050600015158115151461090c576040517f08c379a0000000000000000000000000000000000000000000000000000000008152600401808060200182810382526023815260200180610bd36023913960400191505060405180910390fd5b610914610af0565b60405180604001604052808781526020018681525090506001819080600181540180825580915050906001820390600052602060002090600202016000909192909190915060008201518160000155602082015181600101908051906020019061097f929190610b0a565b505050507fdf42019df16172a4cf62587bc192fc5a8776766d2663cb4d32ced057e8f4a28086866040518083815260200180602001828103825283818151815260200191508051906020019080838360005b838110156109ec5780820151818401526020810190506109d1565b50505050905090810190601f168015610a195780820380516001836020036101000a031916815260200191505b50935050505060405180910390a185935050505092915050565b610a3b610b8a565b6003600f806020026040519081016040528092919082600f8015610a74576020028201915b815481526020019060010190808311610a60575b5050505050905090565b60008060018054905090508091505090565b6000806000905060008090505b600180549050811015610ae6578360018281548110610ab857fe5b9060005260206000209060020201600001541415610ad95760019150610ae6565b8080600101915050610a9d565b5080915050919050565b604051806040016040528060008152602001606081525090565b828054600181600116156101000203166002900490600052602060002090601f016020900481019282601f10610b4b57805160ff1916838001178555610b79565b82800160010185558215610b79579182015b82811115610b78578251825591602001919060010190610b5d565b5b509050610b869190610bad565b5090565b604051806101e00160405280600f90602082028038833980820191505090505090565b610bcf91905b80821115610bcb576000816000905550600101610bb3565b5090565b9056fe54686520656e7465726564206d6f76696520494420616c726561647920657869737473a265627a7a723158200733fba853d26a5b684581c3b3af39eb1316273c94b416790c5b0255e2ee404d64736f6c6343000510003254686520656e7465726564206d6f76696520494420616c726561647920657869737473",
  "source": "pragma solidity ^0.5.0;\n\ncontract MovieRating {\n    address owner;\n    Movie[] movies;\n    uint256[] public movieIds;\n    uint256[15] public averageMovieRatings;\n\n    event MovieRated(address _rater, uint _rating);\n    event MovieInfo(uint256 _movieId, uint256 _accomulatedRating, uint256 _rateCount);\n    event MovieAdded(uint256 _movieId, string _movieName);\n\n    mapping(uint256 => mapping(address => uint)) movieRatings;\n    mapping(uint256 => uint256) rateCount;\n    mapping(uint256 => uint256) accumulatedRating;\n\n    struct Movie {\n        uint256 movieId;\n        string movieName;\n    }\n\n    constructor() public {\n        owner = msg.sender;\n\n        for (uint256 i = 1; i <= 15; i++) {\n            addMovie(i, string(abi.encodePacked(\"Movie \", i)));\n        }\n    }\n\n    modifier onlyOwner() {\n        require(owner == msg.sender, 'Only owner can add the movie');\n        _;\n    }\n\n    modifier movieExists(uint256 _movieId) {\n        bool isExists = isMovieExists(_movieId);\n        require(isExists == false, 'The entered movie ID already exists');\n        _;\n    }\n\n    modifier movieNotExists(uint256 _movieId) {\n        bool isExists = isMovieExists(_movieId);\n        require(isExists == true, 'The entered movie ID not found');\n        _;\n    }\n\n    modifier correctRatingValue(uint _rating) {\n        require(_rating > 0 && _rating <= 5, \"The rating should be within 1-5\");\n        _;\n    }\n\n    function addMovie(uint256 _movieId, string memory _movieName) public onlyOwner movieExists(_movieId) returns (uint256){\n        Movie memory movie = Movie(_movieId, _movieName);\n        movies.push(movie);\n\n        emit MovieAdded(_movieId, _movieName);\n\n        return _movieId;\n    }\n\n    function rateMovie(uint256 _movieId, uint _rating) public movieNotExists(_movieId) correctRatingValue(_rating) {\n        uint256 rate = movieRatings[_movieId][msg.sender];\n\n        movieRatings[_movieId][msg.sender] = _rating;\n\n        if (rate == 0) {\n            rateCount[_movieId] += 1;\n            accumulatedRating[_movieId] += _rating;\n        } else {\n            accumulatedRating[_movieId] -= rate;\n            accumulatedRating[_movieId] += _rating;\n        }\n\n        averageMovieRatings[_movieId - 1] = accumulatedRating[_movieId] / rateCount[_movieId];\n        emit MovieRated(msg.sender, _rating);\n    }\n\n    function isMovieExists(uint256 _movieId) private view returns (bool){\n        bool isExists = false;\n\n        for (uint256 i = 0; i < movies.length; i++) {\n            if (movies[i].movieId == _movieId) {\n                isExists = true;\n                break;\n            }\n        }\n\n        return isExists;\n    }\n\n    function getAverageMovieRating(uint256 _movieId) public view returns (uint256){\n        bool isExists = isMovieExists(_movieId);\n\n        if (isExists == false || rateCount[_movieId] == 0) {\n            return 0;\n        }\n\n        return accumulatedRating[_movieId] / rateCount[_movieId];\n    }\n\n    // Get sessions movie rating\n    function getMyRating(uint256 _movieId) public view returns (uint256){\n        return movieRatings[_movieId][msg.sender];\n    }\n\n    function getTotalMovies() public view returns (uint256){\n        uint256 total = movies.length;\n\n        return total;\n    }\n\n    function getMovieIds() public view returns (uint256[] memory){\n        return movieIds;\n    }\n\n    function getAverageMovieRatings() public view returns (uint256[15] memory) {\n        return averageMovieRatings;\n    }\n}\n",
  "sourcePath": "/Users/tashi/BlockChain/movie-rating/contracts/MovieRating.sol",
  "compiler": {
    "name": "solc",
    "version": "0.5.16+commit.9c3226ce.Emscripten.clang"
  },
  "schemaVersion": "3.3.2",
  "updatedAt": "2020-11-30T12:13:54.480Z",
  "networkType": "ethereum",
  "devdoc": {
    "methods": {}
  },
  "userdoc": {
    "methods": {}
  }
}