{
  "contractName": "MovieRating",
  "abi": [
    {
      "inputs": [],
      "payable": false,
      "stateMutability": "nonpayable",
      "type": "constructor"
    },
    {
      "anonymous": false,
      "inputs": [
        {
          "indexed": false,
          "internalType": "uint256",
          "name": "_movieId",
          "type": "uint256"
        },
        {
          "indexed": false,
          "internalType": "string",
          "name": "_movieName",
          "type": "string"
        }
      ],
      "name": "MovieAdded",
      "type": "event"
    },
    {
      "anonymous": false,
      "inputs": [
        {
          "indexed": false,
          "internalType": "uint256",
          "name": "_movieId",
          "type": "uint256"
        },
        {
          "indexed": false,
          "internalType": "uint256",
          "name": "_accomulatedRating",
          "type": "uint256"
        },
        {
          "indexed": false,
          "internalType": "uint256",
          "name": "_rateCount",
          "type": "uint256"
        }
      ],
      "name": "MovieInfo",
      "type": "event"
    },
    {
      "anonymous": false,
      "inputs": [
        {
          "indexed": false,
          "internalType": "address",
          "name": "_rater",
          "type": "address"
        },
        {
          "indexed": false,
          "internalType": "uint256",
          "name": "_rating",
          "type": "uint256"
        }
      ],
      "name": "MovieRated",
      "type": "event"
    },
    {
      "constant": true,
      "inputs": [
        {
          "internalType": "uint256",
          "name": "",
          "type": "uint256"
        }
      ],
      "name": "averageMovieRatings",
      "outputs": [
        {
          "internalType": "uint256",
          "name": "",
          "type": "uint256"
        }
      ],
      "payable": false,
      "stateMutability": "view",
      "type": "function"
    },
    {
      "constant": true,
      "inputs": [
        {
          "internalType": "uint256",
          "name": "",
          "type": "uint256"
        }
      ],
      "name": "movieIds",
      "outputs": [
        {
          "internalType": "uint256",
          "name": "",
          "type": "uint256"
        }
      ],
      "payable": false,
      "stateMutability": "view",
      "type": "function"
    },
    {
      "constant": false,
      "inputs": [
        {
          "internalType": "uint256",
          "name": "_movieId",
          "type": "uint256"
        },
        {
          "internalType": "string",
          "name": "_movieName",
          "type": "string"
        }
      ],
      "name": "addMovie",
      "outputs": [
        {
          "internalType": "uint256",
          "name": "",
          "type": "uint256"
        }
      ],
      "payable": false,
      "stateMutability": "nonpayable",
      "type": "function"
    },
    {
      "constant": false,
      "inputs": [
        {
          "internalType": "uint256",
          "name": "_movieId",
          "type": "uint256"
        },
        {
          "internalType": "uint256",
          "name": "_rating",
          "type": "uint256"
        }
      ],
      "name": "rateMovie",
      "outputs": [],
      "payable": false,
      "stateMutability": "nonpayable",
      "type": "function"
    },
    {
      "constant": true,
      "inputs": [
        {
          "internalType": "uint256",
          "name": "_movieId",
          "type": "uint256"
        }
      ],
      "name": "getAverageMovieRating",
      "outputs": [
        {
          "internalType": "uint256",
          "name": "",
          "type": "uint256"
        }
      ],
      "payable": false,
      "stateMutability": "view",
      "type": "function"
    },
    {
      "constant": true,
      "inputs": [
        {
          "internalType": "uint256",
          "name": "_movieId",
          "type": "uint256"
        }
      ],
      "name": "getMyRating",
      "outputs": [
        {
          "internalType": "uint256",
          "name": "",
          "type": "uint256"
        }
      ],
      "payable": false,
      "stateMutability": "view",
      "type": "function"
    },
    {
      "constant": true,
      "inputs": [],
      "name": "getTotalMovies",
      "outputs": [
        {
          "internalType": "uint256",
          "name": "",
          "type": "uint256"
        }
      ],
      "payable": false,
      "stateMutability": "view",
      "type": "function"
    },
    {
      "constant": true,
      "inputs": [
        {
          "internalType": "uint256",
          "name": "_movieId",
          "type": "uint256"
        }
      ],
      "name": "getTotalMoviesRating",
      "outputs": [
        {
          "internalType": "uint256",
          "name": "",
          "type": "uint256"
        }
      ],
      "payable": false,
      "stateMutability": "view",
      "type": "function"
    },
    {
      "constant": true,
      "inputs": [
        {
          "internalType": "uint256",
          "name": "_movieId",
          "type": "uint256"
        }
      ],
      "name": "getTotalNoOfRater",
      "outputs": [
        {
          "internalType": "uint256",
          "name": "",
          "type": "uint256"
        }
      ],
      "payable": false,
      "stateMutability": "view",
      "type": "function"
    },
    {
      "constant": true,
      "inputs": [],
      "name": "getAverageMovieRatings",
      "outputs": [
        {
          "internalType": "uint256[15]",
          "name": "",
          "type": "uint256[15]"
        }
      ],
      "payable": false,
      "stateMutability": "view",
      "type": "function"
    }
  ],
  "bytecode": "0x60806040523480156200001157600080fd5b50336000806101000a81548173ffffffffffffffffffffffffffffffffffffffff021916908373ffffffffffffffffffffffffffffffffffffffff1602179055506000600190505b600f8111620000ca57620000bb818260405160200180807f4d6f766965200000000000000000000000000000000000000000000000000000815250600601828152602001915050604051602081830303815290604052620000d160201b60201c565b50808060010191505062000059565b5062000467565b60003373ffffffffffffffffffffffffffffffffffffffff166000809054906101000a900473ffffffffffffffffffffffffffffffffffffffff1673ffffffffffffffffffffffffffffffffffffffff161462000196576040517f08c379a000000000000000000000000000000000000000000000000000000000815260040180806020018281038252601c8152602001807f4f6e6c79206f776e65722063616e2061646420746865206d6f7669650000000081525060200191505060405180910390fd5b826000620001aa826200033960201b60201c565b905060001515811515146200020b576040517f08c379a0000000000000000000000000000000000000000000000000000000008152600401808060200182810382526023815260200180620010b36023913960400191505060405180910390fd5b620002156200039e565b60405180604001604052808781526020018681525090506001819080600181540180825580915050906001820390600052602060002090600202016000909192909190915060008201518160000155602082015181600101908051906020019062000282929190620003b8565b505050507fdf42019df16172a4cf62587bc192fc5a8776766d2663cb4d32ced057e8f4a28086866040518083815260200180602001828103825283818151815260200191508051906020019080838360005b83811015620002f1578082015181840152602081019050620002d4565b50505050905090810190601f1680156200031f5780820380516001836020036101000a031916815260200191505b50935050505060405180910390a185935050505092915050565b6000806000905060008090505b600180549050811015620003945783600182815481106200036357fe5b906000526020600020906002020160000154141562000386576001915062000394565b808060010191505062000346565b5080915050919050565b604051806040016040528060008152602001606081525090565b828054600181600116156101000203166002900490600052602060002090601f016020900481019282601f10620003fb57805160ff19168380011785556200042c565b828001600101855582156200042c579182015b828111156200042b5782518255916020019190600101906200040e565b5b5090506200043b91906200043f565b5090565b6200046491905b808211156200046057600081600090555060010162000446565b5090565b90565b610c3c80620004776000396000f3fe608060405234801561001057600080fd5b506004361061009e5760003560e01c8063d47e941f11610066578063d47e941f146101e3578063e09ac6ac14610225578063f206ae1b14610267578063f4ef422014610340578063feb8a916146103865761009e565b806315888f05146100a357806324bce15b146100e55780635c218fea14610127578063861abe5614610169578063b9025c68146101a1575b600080fd5b6100cf600480360360208110156100b957600080fd5b81019080803590602001909291905050506103a4565b6040518082815260200191505060405180910390f35b610111600480360360208110156100fb57600080fd5b81019080803590602001909291905050506103c1565b6040518082815260200191505060405180910390f35b6101536004803603602081101561013d57600080fd5b810190808035906020019092919050505061043d565b6040518082815260200191505060405180910390f35b61019f6004803603604081101561017f57600080fd5b810190808035906020019092919080359060200190929190505050610455565b005b6101cd600480360360208110156101b757600080fd5b8101908080359060200190929190505050610757565b6040518082815260200191505060405180910390f35b61020f600480360360208110156101f957600080fd5b8101908080359060200190929190505050610774565b6040518082815260200191505060405180910390f35b6102516004803603602081101561023b57600080fd5b8101908080359060200190929190505050610795565b6040518082815260200191505060405180910390f35b61032a6004803603604081101561027d57600080fd5b8101908080359060200190929190803590602001906401000000008111156102a457600080fd5b8201836020820111156102b657600080fd5b803590602001918460018302840111640100000000831117156102d857600080fd5b91908080601f016020809104026020016040519081016040528093929190818152602001838380828437600081840152601f19601f8201169050808301925050505050505091929192905050506107ef565b6040518082815260200191505060405180910390f35b610348610a45565b6040518082600f60200280838360005b83811015610373578082015181840152602081019050610358565b5050505090500191505060405180910390f35b61038e610a90565b6040518082815260200191505060405180910390f35b600060136000838152602001908152602001600020549050919050565b6000806103cd83610aa2565b90506000151581151514806103f5575060006013600085815260200190815260200160002054145b15610404576000915050610438565b601360008481526020019081526020016000205460146000858152602001908152602001600020548161043357fe5b049150505b919050565b600381600f811061044a57fe5b016000915090505481565b81600061046182610aa2565b905060011515811515146104dd576040517f08c379a000000000000000000000000000000000000000000000000000000000815260040180806020018281038252601e8152602001807f54686520656e7465726564206d6f766965204944206e6f7420666f756e64000081525060200191505060405180910390fd5b826000811180156104ef575060058111155b610561576040517f08c379a000000000000000000000000000000000000000000000000000000000815260040180806020018281038252601f8152602001807f54686520726174696e672073686f756c642062652077697468696e20312d350081525060200191505060405180910390fd5b60006012600087815260200190815260200160002060003373ffffffffffffffffffffffffffffffffffffffff1673ffffffffffffffffffffffffffffffffffffffff168152602001908152602001600020549050846012600088815260200190815260200160002060003373ffffffffffffffffffffffffffffffffffffffff1673ffffffffffffffffffffffffffffffffffffffff16815260200190815260200160002081905550600081141561065c576001601360008881526020019081526020016000206000828254019250508190555084601460008881526020019081526020016000206000828254019250508190555061069f565b8060146000888152602001908152602001600020600082825403925050819055508460146000888152602001908152602001600020600082825401925050819055505b60136000878152602001908152602001600020546014600088815260200190815260200160002054816106ce57fe5b04600360018803600f81106106df57fe5b01819055507fc7de3682c938b7b4709db26dba4141f4c7609cd6bfb24f2329cb0dbe8c42689d3386604051808373ffffffffffffffffffffffffffffffffffffffff1673ffffffffffffffffffffffffffffffffffffffff1681526020018281526020019250505060405180910390a1505050505050565b600060146000838152602001908152602001600020549050919050565b6002818154811061078157fe5b906000526020600020016000915090505481565b60006012600083815260200190815260200160002060003373ffffffffffffffffffffffffffffffffffffffff1673ffffffffffffffffffffffffffffffffffffffff168152602001908152602001600020549050919050565b60003373ffffffffffffffffffffffffffffffffffffffff166000809054906101000a900473ffffffffffffffffffffffffffffffffffffffff1673ffffffffffffffffffffffffffffffffffffffff16146108b3576040517f08c379a000000000000000000000000000000000000000000000000000000000815260040180806020018281038252601c8152602001807f4f6e6c79206f776e65722063616e2061646420746865206d6f7669650000000081525060200191505060405180910390fd5b8260006108bf82610aa2565b9050600015158115151461091e576040517f08c379a0000000000000000000000000000000000000000000000000000000008152600401808060200182810382526023815260200180610be56023913960400191505060405180910390fd5b610926610b02565b604051806040016040528087815260200186815250905060018190806001815401808255809150509060018203906000526020600020906002020160009091929091909150600082015181600001556020820151816001019080519060200190610991929190610b1c565b505050507fdf42019df16172a4cf62587bc192fc5a8776766d2663cb4d32ced057e8f4a28086866040518083815260200180602001828103825283818151815260200191508051906020019080838360005b838110156109fe5780820151818401526020810190506109e3565b50505050905090810190601f168015610a2b5780820380516001836020036101000a031916815260200191505b50935050505060405180910390a185935050505092915050565b610a4d610b9c565b6003600f806020026040519081016040528092919082600f8015610a86576020028201915b815481526020019060010190808311610a72575b5050505050905090565b60008060018054905090508091505090565b6000806000905060008090505b600180549050811015610af8578360018281548110610aca57fe5b9060005260206000209060020201600001541415610aeb5760019150610af8565b8080600101915050610aaf565b5080915050919050565b604051806040016040528060008152602001606081525090565b828054600181600116156101000203166002900490600052602060002090601f016020900481019282601f10610b5d57805160ff1916838001178555610b8b565b82800160010185558215610b8b579182015b82811115610b8a578251825591602001919060010190610b6f565b5b509050610b989190610bbf565b5090565b604051806101e00160405280600f90602082028038833980820191505090505090565b610be191905b80821115610bdd576000816000905550600101610bc5565b5090565b9056fe54686520656e7465726564206d6f76696520494420616c726561647920657869737473a265627a7a7231582067975ceeb62fba7271958c5cb78bd39b98d31b8012655e8312758be2f8da578f64736f6c6343000510003254686520656e7465726564206d6f76696520494420616c726561647920657869737473",
  "source": "pragma solidity ^0.5.0;\n\ncontract MovieRating {\n    address owner;\n    Movie[] movies;\n    uint256[] public movieIds;\n    uint256[15] public averageMovieRatings;\n\n    event MovieRated(address _rater, uint _rating);\n    event MovieInfo(uint256 _movieId, uint256 _accomulatedRating, uint256 _rateCount);\n    event MovieAdded(uint256 _movieId, string _movieName);\n\n    mapping(uint256 => mapping(address => uint)) movieRatings;\n    mapping(uint256 => uint256) rateCount;\n    mapping(uint256 => uint256) accumulatedRating;\n\n    struct Movie {\n        uint256 movieId;\n        string movieName;\n    }\n\n    constructor() public {\n        owner = msg.sender;\n\n        for (uint256 i = 1; i <= 15; i++) {\n            addMovie(i, string(abi.encodePacked(\"Movie \", i)));\n        }\n    }\n\n    // Modifier to check if the requester is the owner of the smart contract.\n    modifier onlyOwner() {\n        require(owner == msg.sender, 'Only owner can add the movie');\n        _;\n    }\n\n    // Modifier to check for the movie which exist in the smart contract.\n    modifier movieExists(uint256 _movieId) {\n        bool isExists = isMovieExists(_movieId);\n        require(isExists == false, 'The entered movie ID already exists');\n        _;\n    }\n\n    // Modifier to check for the movie which does not exist smart contract.\n    modifier movieNotExists(uint256 _movieId) {\n        bool isExists = isMovieExists(_movieId);\n        require(isExists == true, 'The entered movie ID not found');\n        _;\n    }\n\n    // Modifier to check if the person who rate is sending correct rating value or not.\n    modifier correctRatingValue(uint _rating) {\n        require(_rating > 0 && _rating <= 5, \"The rating should be within 1-5\");\n        _;\n    }\n\n    // Action to add new movie to the smart contract.\n    function addMovie(uint256 _movieId, string memory _movieName) public onlyOwner movieExists(_movieId) returns (uint256){\n        Movie memory movie = Movie(_movieId, _movieName);\n        movies.push(movie);\n\n        emit MovieAdded(_movieId, _movieName);\n\n        return _movieId;\n    }\n\n    // Contract action which is triggered during rate button is click on.\n    function rateMovie(uint256 _movieId, uint _rating) public movieNotExists(_movieId) correctRatingValue(_rating) {\n        uint256 rate = movieRatings[_movieId][msg.sender];\n\n        movieRatings[_movieId][msg.sender] = _rating;\n\n        if (rate == 0) {\n            rateCount[_movieId] += 1;\n            accumulatedRating[_movieId] += _rating;\n        } else {\n            accumulatedRating[_movieId] -= rate;\n            accumulatedRating[_movieId] += _rating;\n        }\n\n        averageMovieRatings[_movieId - 1] = accumulatedRating[_movieId] / rateCount[_movieId];\n        emit MovieRated(msg.sender, _rating);\n    }\n\n    // Check if the movie with same ID already exists or not.\n    function isMovieExists(uint256 _movieId) private view returns (bool){\n        bool isExists = false;\n\n        for (uint256 i = 0; i < movies.length; i++) {\n            if (movies[i].movieId == _movieId) {\n                isExists = true;\n                break;\n            }\n        }\n\n        return isExists;\n    }\n\n    // Returns average movie ratings for the movie.\n    function getAverageMovieRating(uint256 _movieId) public view returns (uint256){\n        bool isExists = isMovieExists(_movieId);\n\n        if (isExists == false || rateCount[_movieId] == 0) {\n            return 0;\n        }\n\n        return accumulatedRating[_movieId] / rateCount[_movieId];\n    }\n\n    // Get sessions movie rating\n    function getMyRating(uint256 _movieId) public view returns (uint256){\n        return movieRatings[_movieId][msg.sender];\n    }\n\n    // Returns total number movie created so far.\n    function getTotalMovies() public view returns (uint256){\n        uint256 total = movies.length;\n\n        return total;\n    }\n\n    // Returns total accumulated movie rating.\n    function getTotalMoviesRating(uint256 _movieId) public view returns (uint256){\n        return accumulatedRating[_movieId];\n    }\n\n    // Returns number of rating the movie has received so far.\n    function getTotalNoOfRater(uint256 _movieId) public view returns (uint256){\n        return rateCount[_movieId];\n    }\n\n    // Returns list of average movie ratings for the movies\n    function getAverageMovieRatings() public view returns (uint256[15] memory) {\n        return averageMovieRatings;\n    }\n}\n",
  "sourcePath": "/Users/tashi/BlockChainproj/movie-rating/contracts/MovieRating.sol",
  "compiler": {
    "name": "solc",
    "version": "0.5.16+commit.9c3226ce.Emscripten.clang"
  },
  "schemaVersion": "3.4.15",
  "updatedAt": "2023-08-24T17:54:34.528Z",
  "devdoc": {
    "methods": {}
  },
  "userdoc": {
    "methods": {}
  }
}