{
  "contractName": "MovieRating",
  "abi": [
    {
      "inputs": [],
      "payable": false,
      "stateMutability": "nonpayable",
      "type": "constructor"
    },
    {
      "anonymous": false,
      "inputs": [
        {
          "indexed": false,
          "internalType": "uint256",
          "name": "_movieId",
          "type": "uint256"
        },
        {
          "indexed": false,
          "internalType": "string",
          "name": "_movieName",
          "type": "string"
        }
      ],
      "name": "MovieAdded",
      "type": "event"
    },
    {
      "anonymous": false,
      "inputs": [
        {
          "indexed": false,
          "internalType": "uint256",
          "name": "_movieId",
          "type": "uint256"
        },
        {
          "indexed": false,
          "internalType": "uint256",
          "name": "_accomulatedRating",
          "type": "uint256"
        },
        {
          "indexed": false,
          "internalType": "uint256",
          "name": "_rateCount",
          "type": "uint256"
        }
      ],
      "name": "MovieInfo",
      "type": "event"
    },
    {
      "anonymous": false,
      "inputs": [
        {
          "indexed": false,
          "internalType": "address",
          "name": "_rater",
          "type": "address"
        },
        {
          "indexed": false,
          "internalType": "uint256",
          "name": "_rating",
          "type": "uint256"
        }
      ],
      "name": "MovieRated",
      "type": "event"
    },
    {
      "constant": true,
      "inputs": [
        {
          "internalType": "uint256",
          "name": "",
          "type": "uint256"
        }
      ],
      "name": "averageMovieRatings",
      "outputs": [
        {
          "internalType": "uint256",
          "name": "",
          "type": "uint256"
        }
      ],
      "payable": false,
      "stateMutability": "view",
      "type": "function"
    },
    {
      "constant": true,
      "inputs": [
        {
          "internalType": "uint256",
          "name": "",
          "type": "uint256"
        }
      ],
      "name": "movieIds",
      "outputs": [
        {
          "internalType": "uint256",
          "name": "",
          "type": "uint256"
        }
      ],
      "payable": false,
      "stateMutability": "view",
      "type": "function"
    },
    {
      "constant": false,
      "inputs": [
        {
          "internalType": "uint256",
          "name": "_movieId",
          "type": "uint256"
        },
        {
          "internalType": "string",
          "name": "_movieName",
          "type": "string"
        }
      ],
      "name": "AddMovie",
      "outputs": [
        {
          "internalType": "uint256",
          "name": "",
          "type": "uint256"
        }
      ],
      "payable": false,
      "stateMutability": "nonpayable",
      "type": "function"
    },
    {
      "constant": false,
      "inputs": [
        {
          "internalType": "uint256",
          "name": "_movieId",
          "type": "uint256"
        },
        {
          "internalType": "uint256",
          "name": "_rating",
          "type": "uint256"
        }
      ],
      "name": "RateMovie",
      "outputs": [],
      "payable": false,
      "stateMutability": "nonpayable",
      "type": "function"
    },
    {
      "constant": true,
      "inputs": [
        {
          "internalType": "uint256",
          "name": "_movieId",
          "type": "uint256"
        }
      ],
      "name": "TotalRating",
      "outputs": [
        {
          "internalType": "uint256",
          "name": "",
          "type": "uint256"
        }
      ],
      "payable": false,
      "stateMutability": "view",
      "type": "function"
    },
    {
      "constant": true,
      "inputs": [],
      "name": "TotalMovies",
      "outputs": [
        {
          "internalType": "uint256",
          "name": "",
          "type": "uint256"
        }
      ],
      "payable": false,
      "stateMutability": "view",
      "type": "function"
    },
    {
      "constant": true,
      "inputs": [],
      "name": "getMovieIds",
      "outputs": [
        {
          "internalType": "uint256[]",
          "name": "",
          "type": "uint256[]"
        }
      ],
      "payable": false,
      "stateMutability": "view",
      "type": "function"
    },
    {
      "constant": true,
      "inputs": [],
      "name": "getAverageMovieRatings",
      "outputs": [
        {
          "internalType": "uint256[15]",
          "name": "",
          "type": "uint256[15]"
        }
      ],
      "payable": false,
      "stateMutability": "view",
      "type": "function"
    }
  ],
  "bytecode": "0x60806040523480156200001157600080fd5b506000600190505b600f81116200008a576200007b818260405160200180807f4d6f7669652000000000000000000000000000000000000000000000000000008152506006018281526020019150506040516020818303038152906040526200009160201b60201c565b50808060010191505062000019565b506200038d565b600080620000a5846200025f60201b60201c565b9050600015158115151462000106576040517f08c379a000000000000000000000000000000000000000000000000000000000815260040180806020018281038252602381526020018062000e836023913960400191505060405180910390fd5b62000110620002c4565b6040518060400160405280868152602001858152509050600081908060018154018082558091505090600182039060005260206000209060020201600090919290919091506000820151816000015560208201518160010190805190602001906200017d929190620002de565b5050505060018590806001815401808255809150509060018203906000526020600020016000909192909190915055507fdf42019df16172a4cf62587bc192fc5a8776766d2663cb4d32ced057e8f4a28085856040518083815260200180602001828103825283818151815260200191508051906020019080838360005b8381101562000218578082015181840152602081019050620001fb565b50505050905090810190601f168015620002465780820380516001836020036101000a031916815260200191505b50935050505060405180910390a1849250505092915050565b6000806000905060008090505b600080549050811015620002ba5783600082815481106200028957fe5b9060005260206000209060020201600001541415620002ac5760019150620002ba565b80806001019150506200026c565b5080915050919050565b604051806040016040528060008152602001606081525090565b828054600181600116156101000203166002900490600052602060002090601f016020900481019282601f106200032157805160ff191683800117855562000352565b8280016001018555821562000352579182015b828111156200035157825182559160200191906001019062000334565b5b50905062000361919062000365565b5090565b6200038a91905b80821115620003865760008160009055506001016200036c565b5090565b90565b610ae6806200039d6000396000f3fe608060405234801561001057600080fd5b50600436106100885760003560e01c8063a95309821161005b578063a953098214610222578063b429485214610240578063d47e941f1461029f578063f4ef4220146102e157610088565b806327f6b8021461008d578063483e7593146100cf57806350bebb22146101075780635c218fea146101e0575b600080fd5b6100b9600480360360208110156100a357600080fd5b8101908080359060200190929190505050610327565b6040518082815260200191505060405180910390f35b610105600480360360408110156100e557600080fd5b8101908080359060200190929190803590602001909291905050506103a3565b005b6101ca6004803603604081101561011d57600080fd5b81019080803590602001909291908035906020019064010000000081111561014457600080fd5b82018360208201111561015657600080fd5b8035906020019184600183028401116401000000008311171561017857600080fd5b91908080601f016020809104026020016040519081016040528093929190818152602001838380828437600081840152601f19601f8201169050808301925050505050505091929192905050506106a1565b6040518082815260200191505060405180910390f35b61020c600480360360208110156101f657600080fd5b810190808035906020019092919050505061085e565b6040518082815260200191505060405180910390f35b61022a610876565b6040518082815260200191505060405180910390f35b610248610888565b6040518080602001828103825283818151815260200191508051906020019060200280838360005b8381101561028b578082015181840152602081019050610270565b505050509050019250505060405180910390f35b6102cb600480360360208110156102b557600080fd5b81019080803590602001909291905050506108e0565b6040518082815260200191505060405180910390f35b6102e9610901565b6040518082600f60200280838360005b838110156103145780820151818401526020810190506102f9565b5050505090500191505060405180910390f35b6000806103338361094c565b905060001515811515148061035b575060006012600085815260200190815260200160002054145b1561036a57600091505061039e565b601260008481526020019081526020016000205460136000858152602001908152602001600020548161039957fe5b049150505b919050565b60006103ae8361094c565b905060006011600085815260200190815260200160002060003373ffffffffffffffffffffffffffffffffffffffff1673ffffffffffffffffffffffffffffffffffffffff168152602001908152602001600020549050600115158215151461047f576040517f08c379a000000000000000000000000000000000000000000000000000000000815260040180806020018281038252601e8152602001807f54686520656e7465726564206d6f766965204944206e6f7420666f756e64000081525060200191505060405180910390fd5b600083118015610490575060058311155b610502576040517f08c379a000000000000000000000000000000000000000000000000000000000815260040180806020018281038252601f8152602001807f54686520726174696e672073686f756c642062652077697468696e20312d350081525060200191505060405180910390fd5b826011600086815260200190815260200160002060003373ffffffffffffffffffffffffffffffffffffffff1673ffffffffffffffffffffffffffffffffffffffff1681526020019081526020016000208190555060008114156105a857600160126000868152602001908152602001600020600082825401925050819055508260136000868152602001908152602001600020600082825401925050819055506105eb565b8060136000868152602001908152602001600020600082825403925050819055508260136000868152602001908152602001600020600082825401925050819055505b601260008581526020019081526020016000205460136000868152602001908152602001600020548161061a57fe5b04600260018603600f811061062b57fe5b01819055507fc7de3682c938b7b4709db26dba4141f4c7609cd6bfb24f2329cb0dbe8c42689d3384604051808373ffffffffffffffffffffffffffffffffffffffff1673ffffffffffffffffffffffffffffffffffffffff1681526020018281526020019250505060405180910390a150505050565b6000806106ad8461094c565b9050600015158115151461070c576040517f08c379a0000000000000000000000000000000000000000000000000000000008152600401808060200182810382526023815260200180610a8f6023913960400191505060405180910390fd5b6107146109ac565b60405180604001604052808681526020018581525090506000819080600181540180825580915050906001820390600052602060002090600202016000909192909190915060008201518160000155602082015181600101908051906020019061077f9291906109c6565b5050505060018590806001815401808255809150509060018203906000526020600020016000909192909190915055507fdf42019df16172a4cf62587bc192fc5a8776766d2663cb4d32ced057e8f4a28085856040518083815260200180602001828103825283818151815260200191508051906020019080838360005b838110156108185780820151818401526020810190506107fd565b50505050905090810190601f1680156108455780820380516001836020036101000a031916815260200191505b50935050505060405180910390a1849250505092915050565b600281600f811061086b57fe5b016000915090505481565b60008060008054905090508091505090565b606060018054806020026020016040519081016040528092919081815260200182805480156108d657602002820191906000526020600020905b8154815260200190600101908083116108c2575b5050505050905090565b600181815481106108ed57fe5b906000526020600020016000915090505481565b610909610a46565b6002600f806020026040519081016040528092919082600f8015610942576020028201915b81548152602001906001019080831161092e575b5050505050905090565b6000806000905060008090505b6000805490508110156109a257836000828154811061097457fe5b906000526020600020906002020160000154141561099557600191506109a2565b8080600101915050610959565b5080915050919050565b604051806040016040528060008152602001606081525090565b828054600181600116156101000203166002900490600052602060002090601f016020900481019282601f10610a0757805160ff1916838001178555610a35565b82800160010185558215610a35579182015b82811115610a34578251825591602001919060010190610a19565b5b509050610a429190610a69565b5090565b604051806101e00160405280600f90602082028038833980820191505090505090565b610a8b91905b80821115610a87576000816000905550600101610a6f565b5090565b9056fe54686520656e7465726564206d6f76696520494420616c726561647920657869737473a265627a7a7231582009f68496faf1dfd823c2cd237e6e03439428d858942615d27380f1e88c30c96964736f6c6343000510003254686520656e7465726564206d6f76696520494420616c726561647920657869737473",
  "source": "pragma solidity ^0.5.0;\n\ncontract MovieRating {\n    Movie[] movies;\n    uint256[] public movieIds;\n    uint256[15] public averageMovieRatings;\n\n    event MovieRated(address _rater, uint _rating);\n    event MovieInfo(uint256 _movieId, uint256 _accomulatedRating, uint256 _rateCount);\n    event MovieAdded(uint256 _movieId, string _movieName);\n\n    mapping(uint256 => mapping(address => uint)) movieRatings;\n    mapping(uint256 => uint256) rateCount;\n    mapping(uint256 => uint256) accumulatedRating;\n\n    struct Movie {\n        uint256 movieId;\n        string movieName;\n    }\n\n    constructor() public {\n        for (uint256 i = 1; i <= 15; i++) {\n            AddMovie(i, string(abi.encodePacked(\"Movie \", i)));\n        }\n    }\n\n    function AddMovie(uint256 _movieId, string memory _movieName) public returns (uint256){\n        bool isExists = MovieExists(_movieId);\n\n        require(isExists == false, \"The entered movie ID already exists\");\n\n        Movie memory movie = Movie(_movieId, _movieName);\n        movies.push(movie);\n        movieIds.push(_movieId);\n\n        emit MovieAdded(_movieId, _movieName);\n\n        return _movieId;\n    }\n\n    function RateMovie(uint256 _movieId, uint _rating) public {\n        bool isExists = MovieExists(_movieId);\n        uint256 rate = movieRatings[_movieId][msg.sender];\n\n        require(isExists == true, \"The entered movie ID not found\");\n        require(_rating > 0 && _rating <= 5, \"The rating should be within 1-5\");\n\n        movieRatings[_movieId][msg.sender] = _rating;\n\n        if (rate == 0) {\n            rateCount[_movieId] += 1;\n            accumulatedRating[_movieId] += _rating;\n        } else {\n            accumulatedRating[_movieId] -= rate;\n            accumulatedRating[_movieId] += _rating;\n        }\n\n        averageMovieRatings[_movieId - 1] = accumulatedRating[_movieId] / rateCount[_movieId];\n        emit MovieRated(msg.sender, _rating);\n    }\n\n    function MovieExists(uint256 _movieId) private view returns (bool){\n        bool isExists = false;\n\n        for (uint256 i = 0; i < movies.length; i++) {\n            if (movies[i].movieId == _movieId) {\n                isExists = true;\n                break;\n            }\n        }\n\n        return isExists;\n    }\n\n    function TotalRating(uint256 _movieId) public view returns (uint256){\n        bool isExists = MovieExists(_movieId);\n\n        if (isExists == false || rateCount[_movieId] == 0) {\n            return 0;\n        }\n\n        return accumulatedRating[_movieId] / rateCount[_movieId];\n    }\n\n    function TotalMovies() public view returns (uint256){\n        uint256 total = movies.length;\n\n        return total;\n    }\n\n    function getMovieIds() public view returns (uint256[] memory){\n        return movieIds;\n    }\n\n    function getAverageMovieRatings() public view returns (uint256[15] memory) {\n        return averageMovieRatings;\n    }\n}\n",
  "sourcePath": "/Users/tashi/BlockChain/movie-rating/contracts/MovieRating.sol",
  "compiler": {
    "name": "solc",
    "version": "0.5.16+commit.9c3226ce.Emscripten.clang"
  },
  "schemaVersion": "3.3.2",
  "updatedAt": "2020-11-30T10:04:08.480Z",
  "networkType": "ethereum",
  "devdoc": {
    "methods": {}
  },
  "userdoc": {
    "methods": {}
  }
}